:020000001128C5
:100008003628200882073F3406345B344F34663480
:100018006D347C3407347F3467341320352821004D
:100028008C018D0122008C018D0121006E30990018
:1000380000309800200097019601111020003130FF
:100048009800210001309100C0308B0020000B3057
:100058009700DB30960020000030A0000A30A10095
:10006800080035282000111C0900200018100B304A
:100078009700DB309600052020008C008D00A00A38
:10008800200821020319A0012000111018140900EA
:020000040001F9
:04000E00A43FFF1EEE
:00000001FF
